:100000000C94B9000C9437010C943A010C94000044
:100010000C9400000C9400000C9400000C94000060
:100020000C9400000C9400000C9400000C94000050
:100030000C9400000C9400000C9400000C94000040
:100040000C9400000C9400000C9400000C94000030
:100050000C9400001027E80364000A00010000105F
:100060000001100001005072657373202A20746F24
:10007000204C6F67696E00456E74657220796F75EC
:10008000722049443A200025630057726F6E672042
:10009000494400456E746572205061737320436F4C
:1000A00064653A2000536F7272792C2057726F6E1C
:1000B000672050430057656C636F6D203A257320AD
:1000C0000A202020446F6F72206973206F70656E64
:1000D000696E67000A2020446F6F722069732043A5
:1000E0006C6F7365696E67004E65772050432073AF
:1000F000746F72656420283A00456E746572204101
:10010000646D696E2050433A200053747564656EC7
:10011000742049443A2000456E746572206E6577FC
:10012000205043203A20000A436F6E7461637420AC
:1001300041646D696E00456E746572204944203AD1
:1001400020000A456E746572204F6C642050432075
:100150003A20000A52652D656E746572206E6577CF
:10016000205043203A20000080C00200970168011F
:100170000000F894EE27ECBBF1E0FBBFEBBFE5BF5E
:100180008DE0A2E0BB27ED938A95E9F780E094E04B
:10019000A0E6ED930197E9F7EAE6F1E08591959104
:1001A000009761F0A591B59105901590BF01F00100
:1001B00005900D920197E1F7FB01F0CFEFE5EDBF60
:1001C000E4E0EEBFC0E6D1E00C94E600A7D12597AD
:1001D000C3D2E2E0EA93A1E0ADD2E6E6F0E07AD461
:1001E000EC83AC81AA3211F02596F1CFB5D2E7E7C6
:1001F000F0E070D475D4EB81EA93EB81EA93AB81A4
:1002000066D1E883A9D2A881AA3031F4EAE8F0E007
:1002100093D464D22596DBCFE3E9F0E05BD460D4DD
:100220009BD2E881F0E0FA93EA93ED81EA93ED81C5
:10023000EA93AD81C6D0309729F4E5EAF0E07CD4AA
:100240002596C5CFE5EBF0E0FA93EA93EA81F0E07A
:1002500035D5E159FE4F6627772774D4A9D07CD2D3
:10026000E4EDF0E074D49BD02596B1CFFFCF75D4E8
:100270002BD002C072D457D0E991EFBFF991E99128
:10028000B991A9919991899179916991F990199070
:100290000990189570D460D2E8EEF0E058D472D48A
:1002A000FA93EA93A32F05D16DD43196FA93EA938A
:1002B000A02FFFD067D43296FA93EA93A12FF9D0FA
:1002C000ACEDB5E013D595C0E9D446D2E9EFF0E046
:1002D00001D45DD466D470D4A4EFB1E007D577D44F
:1002E0007BD411F41AD016C037D2EAE0F1E0F2D391
:1002F0004ED457D461D4A4EFB1E0F8D473D42CD247
:100300002A3011F40AD006C073D441D44AD454D44C
:1003100073D477D4CAD4249608951ED2E7E2F1E0CC
:100320000BD4DCD108952197B7D416D2E6E3F1E0DF
:10033000D1D32DD436D440D455D42A3011F4EDDFA6
:100340002BC0E2E4F1E0C6D322D42BD435D454D46C
:1003500043D411F4E2DF20C04BD419D422D42CD4DE
:10036000E3E5F1E0B7D35E2F50D4E12F53D458D159
:100370004E2F4BD4E02F4ED453D1EE8346D4E32FEF
:1003800049D4511729F4401719F4EE81E31711F0FD
:10039000C4DF02C031D435D486D427960895A19AFB
:1003A000A99AA0EDB7E0A2D4A998A0EDB7E09EC1AC
:1003B000A09AA89AA0EDB7E099D4A898A0EDB7E0CC
:1003C00095C1D9D3DFD3DF0168D03E1761F4DAD30A
:1003D0003196DF0162D00E1731F4D4D33296DF01AB
:1003E0005CD01E1709F003C0E1E0F0E002C0E0E0DD
:1003F000F0E059D42A9608951A931A2F113381F0F8
:10040000A0E0B0E04AD0EF3F51F4A1E0B0E045D029
:10041000EF3F29F4A2E0B0E040D0EF3F09F03CC04C
:10042000D6D3A2E346D0E1E0F0E0F8D3E2E0F0E09A
:10043000F9D3E3E0F0E0FA93EA93A1E33AD0E4E001
:10044000F0E0F4D3E5E0F0E0F5D3E6E0F0E0EAD365
:10045000E7E0F0E0EBD3E8E0F0E0FA93EA93A5E31D
:1004600028D0E9E0F0E0FA93EA93A4E322D0EAE0AE
:10047000F0E0DCD3EBE0F0E0FA93EA93A6E319D0E6
:10048000ECE0F0E0CBD3EDE0F0E0FA93EA93A7E301
:1004900010D0EEE0F0E0CED3A5C11A930A938D01FF
:1004A000E199FECF1FBB0EBBE09AEDB30991199104
:1004B0000895F4D31A2F2C813D81E199FECF3FBBE3
:1004C0002EBB1DBBE29AE19AF0D326960895E4D3A1
:1004D0003A2F2E815F8100E010E00530E0E01E073A
:1004E000C4F4ACD3E05AFE4FA0815A1761F4A6D3EE
:1004F000EF59FE4FA0812A1731F4A0D3EE59FE4FD9
:10050000A0813A1709F002C0F80105C00F5F1F4F24
:10051000E4CFEAE0F0E0C7D328960895E5B7E260BB
:10052000E5BFE5B7E860E5BFE5B7EE7FE5BFE5B756
:10053000EB7FE5BF7894EBB7E064EBBFEBB7E06827
:10054000EBBFE7E0E7BBE8EFE8BBA4E122D1E1E3E2
:10055000E0936001E0936101E0936201E093630145
:10056000E2E3E0936401E6E3E0936501E1E3E09315
:100570006601E2E3E0936701E8E3E0936801E1E309
:10058000E0936901E3E3E0936A01E0E3E0936B0148
:10059000E1E3E0936C01E3E3E0936D01E2E3E093D8
:1005A0006E01E0E5E0936F01E2E7E0937001EFE6B2
:1005B000E0937101E6E6E0937201E1E4E0937701F4
:1005C000E8E6E0937801EDE6E0937901E5E6E09373
:1005D0007A01E4E6E0937B01E1E4E0937F01EDE65C
:1005E000E0938001E2E7E0938101E1E4E093870199
:1005F000E4E6E0938801E5E6E0938901ECE6E09328
:100600008A01EFE4E0938F01EDE6E0939001E1E6EB
:10061000E0939101E2E7E0939201A0E3EDDE08951B
:10062000C098C19AC29AE6B3E63F29F4B39BFECFC5
:10063000E1E3089514C0EE3E29F4B49BFECFE4E359
:1006400008950DC0EE3D29F4B59BFECFE7E3089574
:1006500006C0EE3B21F4B69BFECFEAE20895C09AB5
:10066000C198C29AE6B3E53F29F4B39BFECFE2E31B
:10067000089514C0ED3E29F4B49BFECFE5E3089540
:100680000DC0ED3D29F4B59BFECFE8E3089506C00B
:10069000ED3B21F4B69BFECFE0E30895C09AC19AEA
:1006A000C298E6B3E33F29F4B39BFECFE3E308959A
:1006B00014C0EB3E29F4B49BFECFE6E308950DC0D1
:1006C000EB3D29F4B59BFECFE9E3089506C0EB3B73
:1006D00021F4B69BFECFE3E20895A2CF8D9A959ABE
:1006E000A8ECB0E003D39598A8ECB0E0FFD2089551
:1006F0001A931A2FEBB3EF70AE2FE12FE07FEA2BA6
:10070000EBBB8DE08A95F1F7DA9A8DE08A95F1F7E7
:10071000DA988DE08A95F1F765C0AA93A881E8DFA1
:10072000E881E295E883A881E3DF85E88A95F1F71F
:10073000219608951A930A931A2F0A81E12FF0E067
:10074000E956FE4FE081E00FAE2FE7DF502E412E3D
:100750001981088123960895A2E076D2ACE0DDDF0E
:10076000A1E072D2E0E04E2E5E2E08951A931A2F69
:100770001A3011F0571438F0E0E0EA934394A42DB6
:10078000D9DF1A3079F15394D89AA12FC6DFD898BF
:1007900029C01A931A2FEAB3E06FEABBD29AD09A13
:1007A000D19ADA98D898D998712EE12FE058E09331
:1007B0009901E12FE054E0939A01A4E1B0E096D2D0
:1007C00047D246D245D2A0E293DF88EC90E0019771
:1007D000F1F7A8E2A2DFA4E0A0DFA5E89EDFA6E093
:1007E0009CDFBADF19910895BA93AA93269754D241
:1007F00010E0AC85BD85E0E0F0E0ED93FC93EA8984
:10080000FB893196EA8BFB8B3197E4912E2FE030F8
:1008100009F40BC1E12FE03031F4253211F411E07D
:1008200001C01DD201C1E130A1F4253211F417D26B
:10083000FAC012E040E000E02D3211F401E0F4C013
:100840002B3211F44BE2F0C0203211F440E2ECC044
:1008500002C0E23039F450E013E0203311F40068B4
:10086000E3C003C0E33009F0DFC0203310F02A33C7
:1008700008F007C0AAE05A9F502DE22FE0535E0F08
:10088000D3C0E22FE33639F4F1D1E889F989A481A4
:10089000AA93F2D1C8C0E33729F4E8D1F3D101D14A
:1008A0001E2F07C0E03749F4E1D1ECD106D11E2F4D
:1008B000086002600F7730E03AC0E43611F0E936A4
:1008C00011F4046002C0E53731F4E4E5F0E0EE83B2
:1008D000FF8315E00CC0E83511F4086003C0E83769
:1008E00009F0A1C0EEE5F0E0EE83FF8314E002FF23
:1008F00015C0BCD1A889B9891496ED91FD91EA87FC
:10090000FB87AB85AA2322F4D5D1EA87FB874DE28A
:10091000403011F01F5F01C00B7F09C0A7D1A8892B
:10092000B9891496ED91FC911197EA87FB8700FD38
:1009300010C0151770F407FF08C002FF04C00B7F3A
:10094000242F115001C020E301C020E288D1515072
:10095000F0CF312F01FF16C0303099F003FF06C0F1
:10096000EE81FF812591EE83FF8305C0AE81BF81BB
:100970002D91AE83BF8373D1503009F05150315067
:10098000EBCF48C020E3EE81FF81A7D1E887F9874C
:10099000EE81FF813296EE83FF83E885F985AA8593
:1009A000BB85AE17BF0750F02F5FA885B985EA85D4
:1009B000FB85EA1BFB0BEA87FB87EFCF2A3328F086
:1009C00003FF02C0295F01C0295D04FD19C0213366
:1009D00020F4A885B985119709F409C0531710F0C0
:1009E00000FF01C011C020E207FF0AC020E3006140
:1009F00002FF06C00B7F4A933FD1503009F051509F
:100A00002ED1503009F051503150A885B985129738
:100A100008F0B8CF00FF07C0503029F05150E0E295
:100A2000EA932AD1F9CF10E0EACEAC85BD85ED91ED
:100A3000FD9139D16496089531D18D013C81A32F68
:100A400095DED801ED91FD913196FE93EE932DD177
:100A500025960895FF92F82E26971A930A93DE01A1
:100A600014960024AF0DB01D8D01E0E0EC83ED8302
:100A7000EE83EF83DE0118960024AF0DB01DED91DB
:100A8000FD91FA93EA931A930A93ECE1F5E0FA9355
:100A9000EA93DE011896A8DE198108812896FF9056
:100AA0000895BA93AA93A991B991EE27FF276D9162
:100AB000662311F03196FBCF0895BA93AA93AA2723
:100AC000BB27E991F9910590002011F01196FBCF19
:100AD000FD010895FA93EA9380E0BCDF2296A0CD51
:100AE000EB83E7E8F0E0FA93EA93ED81FF276627CE
:100AF0007727F7D084E0AEDF269692DDEA83E7E839
:100B0000F0E0FA93EA93EC81FF2766277727E9D094
:100B100084E0A0DF269684DDE983E7E8F0E0FA933D
:100B2000EA93EB81FF2766277727DBD084E092DF0B
:100B30002696A8EEB3E0DAC0FA93EA9380E08ADF63
:100B40002296CCCDCED084E085DF26960895FA9308
:100B5000EA9380E07FDF229608950A921A92FA9231
:100B60006A937A938A939A93AA93BA93EA93FA939D
:100B7000EFB7EA93089590D01A2F0E813F814885F0
:100B800059850895FA01A3E0B0E09FD008951E2F83
:100B9000E7E8F0E0FA93EA93E12FFF27662777274B
:100BA000D1CF3EDD0E2FE7E8F0E0FA93EA93E02F95
:100BB000FF2766277727C6CF33DD3E2FE7E8F0E033
:100BC000FA93EA93E32FFF2766277727BBCFE0E06E
:100BD000F0E0FA93EA9308951A930A93A32FF1DBB6
:100BE000309708951A930A93A32F71DC2E2F08953E
:100BF000B3DDE7E1F1E06ECFE22FF0E0FA93EA93A4
:100C000008951A930A93A32F45CBE7E8F0E0FA93EF
:100C1000EA930895FF276627772794CFFA93EA93FC
:100C2000A0E347CCFA93EA93A3E343CCFA93EA9385
:100C3000A2E33FCCFA93EA93A9E33BCCA3E0A09FC5
:100C4000F001A19FF00D089568DDA3E0B0E04EC073
:100C5000A0E34EDD88EC90E00197F1F708952A9328
:100C6000AD85BE85EF85F88909950895E889F989EC
:100C70003497E88BF98B0895AD85BE85EF85F889AB
:100C800009950895A889B9891496ED91FD91EE838F
:100C9000FF83AE81BF8108955A934A933A932A9372
:100CA0001A930A9308955D814C813B812A811981B1
:100CB00008810895F195E195F0400895EE0FFF1F2A
:100CC000EE0FFF1FEE0FFF1F0895FA9FF02DEB9F11
:100CD000F00DEA9FE02DF10D08950590F491E02DBF
:100CE00008957A936A93FA93EA930895109639F0E7
:100CF000A89580ED97E00197F1F71197C9F708954E
:00000001FF
